:1016530012178075B30075B4FF90008E7464F0A305
:10166300F090008A74FDF0A37480F0A374FDF0A3DE
:101673007480F07B017A00798A1213F390008A74E4
:1016830001F0A374A0F0A37401F0A37480F07B01B4
:101693007A00798A1213F37B017A0079001215FC20
:0516A300120AAC80FBFF
:1015FC00E41203FD90000312040F900002E41204A5
:10160C000F900087E412040F900088E412040F90EE
:10161C000004740E12040F900005740812040F904D
:10162C00000674C812040F900007740E12040F9079
:10163C000008740812040F90000974C812040F906B
:07164C000001740102040F0C
:03175E0001140073
:10178000758922E4F58B758DD6F58A758CD6D2AF26
:09179000D2A9D2ABD28CD28E2278
:03000B0002148E4E
:10148E00C0E0C0D0E514C395085004D2948002C2C7
:10149E0094E514C3950A5004D2958002C295E514C2
:1014AE00C3950C5004D2968002C296E514C3950ED5
:1014BE005004D2978002C297E514C395095004D206
:1014CE00908002C290E514C3950B5004D291800215
:1014DE00C291E514C3950D5004D2928002C292E5DA
:1014EE0014C3950F5004D2938002C293E514C39493
:1014FE0008500405148003751400C28DD0D0D0E0BE
:01150E0032AA
:03001B000216A822
:1016A800C0E0C083C082C0D075D000C0079000A23F
:1016B800E0FF9000A0E0C39F5005E004F08002D254
:1016C800059000A3E0FF9000A1E0C39F5005E0044F
:1016D800F08002D206C28FD007D0D0D082D083D07B
:0216E800E032EE
:101761000212753002107530480098000203040619
:0E17710007070848009008080707060403024F
:10110200E513541FFF131313541F14602E14604D64
:101112001460662403600302119A74902FF582E42E
:101122003400F583E0F50974982FF582E43400F574
:1011320083E0F50BE4F50DF50F805DE4F5097488A5
:101142002FF582E43400F583E0F50B74902FF582DD
:10115200E43400F583E0F50DE4F50F803BE4F50996
:10116200F50B74802FF582E43400F583E0F50D74FD
:10117200882FF582E43400801A74802FF582E434DB
:1011820000F583E0F509E4F50BF50D74782FF5828F
:10119200E43400F583E0F50F120431AEF0D394008D
:1011A200EE64809480401074FFF5F0120494E5130D
:1011B2001513701A151222C3EE64809480500FE446
:0E11C20075F0011204940513E5137002051276
:0111D00022FC
:1011D100E511541FFF131313541F14602E14604D97
:1011E1001460662403600302126974902FF582E48F
:1011F1003400F583E0F50874982FF582E43400F5A6
:1012010083E0F50AE4F50CF50E805DE4F5087488D9
:101211002FF582E43400F583E0F50A74902FF5820E
:10122100E43400F583E0F50CE4F50E803BE4F508C9
:10123100F50A74802FF582E43400F583E0F50C742F
:10124100882FF582E43400801A74802FF582E4340B
:1012510000F583E0F508E4F50AF50C74782FF582C2
:10126100E43400F583E0F50E120431AEF0D39400BE
:10127100EE64809480401074FFF5F0120494E5113F
:101281001511701A151022C3EE64809480500FE47A
:0E12910075F0011204940511E51170020510AC
:01129F00222C
:1013F3009000A7EBF0A3EAF0A3E9F09000A7E0FBCD
:10140300A3E0FAA3E0F990000412037B9000A2F09A
:1014130090000512037B9000A3F0E49000A0F0A3DA
:10142300F0D205D2069000A7E0FBA3E0FAA3E0F90F
:10143300120431FFAEF04E700A90000212045C45B4
:10144300F06047300519C205E49000A0F0EF4E604C
:101453000E9000A7E0FBA3E0FAA3E0F91211D1304C
:1014630006C3C206E49000A1F09000A7E0FBA3E04E
:10147300FAA3E0F990000212045C45F060A7E924A6
:0B14830002F9E43AFA121102809B22E9
:100DD500BF350529BF3505293F800000BF6C8366F7
:100DE500BEC3EEA23F800000BF80000000000000EF
:100DF5003F800000BF6C83663EC3EEA23F800000CB
:100E0500BF3505293F3505293F800000BEC3EEA249
:100E15003F6C83663F800000000000003F800000BB
:100E25003F8000003EC3EEA23F6C83663F8000001A
:100E35003F3505293F3505293F8000003F6C836616
:100E45003EC3EEA23F8000003F800000000000008E
:100E55003F8000003F6C8366BEC3EEA23F8000006A
:100E65003F350529BF3505293F8000003EC3EEA269
:100E7500BF6C83663F80000000000000BF8000005B
:100E85003F800000BEC3EEA2BF6C83663F800000BA
:100E9500BF350529BF3505293F800000BF35052928
:100EA5003F3505293F8000003F3505293F35052998
:100EB5003F8000003F350529BF3505293F800000EB
:100EC500BF800000000000003F800000000000001F
:100ED5003F8000003F8000003F80000000000000D0
:100EE5003F80000000000000BF8000003F80000040
:100690009000A7EBF0A3EAF0A3E9F09000A7E0FB3D
:1006A000A3E0FAA3E0F990000212037B75F003A423
:1006B000FFAEF0E92FF9EA3EFA90000C12037B60DE
:1006C000169000A7A3E0FAA3E02FF9EA3EFA900003
:1006D0000D12037BFF70489000A7E0FBA3E0FAA394
:1006E000E0F990000A12045CFE9000AAE0FBA3E08F
:1006F000FAA3E0F9900004EE12040F9000A7E0FBCB
:10070000A3E0FAA3E0F990000A12045CFE9000AAAC
:10071000E0FBA3E0FAA3E0F9900005EE0208F7EF92
:100720003395E0FE1217ADC006C0079000A7E0FBAE
:10073000A3E0FAA3E0F990000212037B75F003A492
:10074000FFE92FF9EA35F0FA90000C12037BFF3332
:1007500095E0FE1217ADD005D004C3EF9DEC648088
:10076000F8EE6480989000A7E0FB5003020834A3E1
:10077000E0FAA3E0F990000A12045CFF9000AAE0FE
:10078000FBA3E0FAA3E0F9900004EF12040F90003D
:10079000A7E0FBA3E0FAA3E0F990000212037B7547
:1007A000F003A4FFE92FF9EA35F0FA90000D1203E7
:1007B0007BFC1202C612000EC004C005C006C007B2
:1007C0009000A7E0FBA3E0FAA3E0F9900002120377
:1007D0007B75F003A4FFE92FF9EA35F0FA90000CDD
:1007E00012037BFC1202C612000ED003D002D0010D
:1007F000D00012021FC004C005C006C0079000A7A9
:10080000E0FBA3E0FAA3E0F990000A12045CFDAC5F
:10081000F0E41202C1D003D002D001D000120116C0
:100820001202FA9000AAE0FBA3E0FAA3E0F990001C
:10083000050208F6A3E0FAA3E0F990000A12045CAE
:10084000FF9000AAE0FBA3E0FAA3E0F9900005EF17
:1008500012040F9000A7E0FBA3E0FAA3E0F99000D8
:100860000212037B75F003A4FFE92FF9EA35F0FAD1
:1008700090000C12037BFC1202C612000EC004C0D2
:1008800005C006C0079000A7E0FBA3E0FAA3E0F9CB
:1008900090000212037B75F003A4FFE92FF9EA35FB
:1008A000F0FA90000D12037BFC1202C612000ED06B
:1008B00003D002D001D00012021FC004C005C00640
:1008C000C0079000A7E0FBA3E0FAA3E0F990000ABC
:1008D00012045CFDACF0E41202C1D003D002D001DE
:1008E000D0001201161202FA9000AAE0FBA3E0FA6F
:0B08F000A3E0F9900004EF12040F22B7
:10134C009000A4EBF0A3EAF0A3E9F09000A4E0FB7A
:10135C00A3E0FAA3E0F990000112037BFF900002D6
:10136C0012037BFEC39F506D9000A4A3A3EE75F0F7
:10137C0003A4FFE92FF9EA35F0FA90000C12037B75
:10138C00FE3395E090008AF0A3CEF090000D12038E
:10139C007BFE3395E090008CF0A3CEF09000AA7405
:1013AC0001F0A37400F0A3748AF09000A4A3E0FAF7
:1013BC00A3E0F91206907B017A00798A1213F3905C
:1013CC0000A4E0FBA3E0FAA3E0F990000274011280
:1013DC0003CA0213579000A4E0FBA3E0FAA3E0F9C0
:0713EC00900002E402040F6F
:100AAC00900000E0B415004003020C4D900ABFF812
:100ABC00282873020AFE020BAE020B7A020BAE025E
:100ACC000B7F020BAE020B87020BAE020B8F020BDD
:100ADC00AE020BA0020BAE020BA7020BAE020BB0C8
:100AEC00020BAE020BD8020BE7020BFA020C13023C
:100AFC000C30900004E0FCE41202C6900DD51205F7
:100B0C00E8120116C004C005C006C007900005E03D
:100B1C00FC1202C6D003D002D001D0001200251264
:100B2C0002FA900084EFF0900004E0FCE41202C69C
:100B3C00900DD91205E8120116C004C005C006C0FC
:100B4C0007900006E0FC1202C6D003D002D001D000
:100B5C00001200251202FA900085EFF07B017A005A
:100B6C0079001216F9900000E004F0020C4D900090
:100B7C00058003900006E02430802E900005E024D0
:100B8C00D080269000057420F0A374E0F09000044F
:100B9C00742080159000047418800E90000474105A
:100BAC00800780159000047420F09000A774FFF06B
:100BBC00A3740DF0A374D580429000A774FFF0A32A
:100BCC00740DF0A374D5F0A37410804C9000A7742E
:100BDC00FFF0A3740EF0A3749580209000A774FF0F
:100BEC00F0A3740EF0A37495F0A37404802A900003
:100BFC00A774FFF0A3740EF0A374C5F07B017A0008
:100C0C007900121013803A9000A774FFF0A3740EB1
:100C1C00F0A374C5F0A37404F07B017A0079001280
:100C2C000C56801D9000A774FFF0A3740DF0A374F4
:100C3C00D5F07B017A007900121013900000740932
:0A0C4C00F07B017A00790002134CDE
:0B0EF5009000ACEBF0A3EAF0A3E9F0E2
:100F0000E4A3F09000ACE0FBA3E0FAA3E0F99000CA
:100F10000112037B14FF9000AFE0FEC39F5046EE2A
:100F200075F003A4FF9000ACA3A3E02FF9EA35F01D
:100F3000FA90004B12037BF404FF90004812037BED
:100F40002F90000C12040F90004C12037BF404FF4E
:100F500090004912037B2F90000D12040F9000AFF8
:100F6000E004F0809E9000ACE0FBA3E0FAA3E0F97F
:100F700090000112037B75F003A4FFE92FF9EA3515
:100F8000F0FA90004512037BFF9000ACA3E0FAA3B7
:100F9000E0F990004812037BF4042FFD9000011249
:100FA000037B75F003A4FFE92FF9EA35F0FA90000E
:100FB00009ED12040F9000ACE0FBA3E0FAA3E0F906
:100FC00090000112037B75F003A4FFE92FF9EA35C5
:100FD000F0FA90004612037BFF9000ACA3E0FAA366
:100FE000E0F990004912037BF4042FFD90000112F8
:100FF000037B75F003A4FFE92FF9EA35F0FA9000BE
:101000000AED12040F9000ACE0FBA3E0FAA3E0F9B4
:031010000217992B
:0B08FB009000B0EBF0A3EAF0A3E9F0DE
:100906009000B6E090000112040FE49000B7F0905A
:1009160000B6E014FFA3E0FEC39F40030209D2EE37
:1009260075F006A4FF9000B3E0FBA3E0FAA3E02F66
:10093600F9EA35F0FA90000612045CF404FF900020
:10094600B3A3E0FAA3E0F99000B7E075F006A4F5CA
:100956008285F08312045C2FFD9000B7E075F003EA
:10096600A4FF9000B0E0FBA3E0FAA3E02FF9EA357C
:10097600F0FA90000CED12040F9000B7E075F00647
:10098600A4FF9000B3E0FBA3E0FAA3E02FF9EA3559
:10099600F0FA90000812045CF404FF9000021204BE
:1009A6005C2FFD9000B7E075F003A4FF9000B0E067
:1009B600FBA3E0FAA3E02FF9EA35F0FA90000DED7B
:1009C60012040F9000B7E004F00209159000B6E09B
:1009D60075F006A4FF9000B3E0FBA3E0FAA3E02FB6
:1009E600F9EA35F0FA90FFFA12045CFF9000B3A31F
:1009F600E0FAA3E0F9120431F4042FFD9000B6E00A
:100A060075F003A4FF9000B0E0FBA3E0FAA3E02F8B
:100A1600F9EA35F0FA900009ED12040F9000B6E0FD
:100A260075F006A4FF9000B3E0FBA3E0FAA3E02F65
:100A3600F9EA35F0FA90FFFC12045CFF9000B3A3CC
:100A4600E0FAA3E0F990000212045CF4042FFD9092
:100A560000B6E075F003A4FF9000B0E0FBA3E0FA57
:100A6600A3E02FF9EA35F0FA90000AED12040F9090
:100A760000B0E0FBA3E0FAA3E0F990000312037BC9
:100A8600C3941E900003500774011203CA8009E440
:100A960012040F74011203A89000B0E0FBA3E0FA61
:060AA600A3E0F90217991C
:0B0C56009000A4EBF0A3EAF0A3E9F08B
:100C6100E49000ABF09000AAE0FFA3E0C39F400333
:100C7100020D939000A4E0FBA3E0FAA3E0F9900039
:100C81000412037BFCE41202C69000A7E0FBA3E080
:100C9100FAA3E0F99000ABE075F00CA4F58285F0C1
:100CA10083120618120116C004C005C006C00790C1
:100CB10000A4E0FBA3E0FAA3E0F990000512037B96
:100CC100FC1202C6D003D002D001D00012002512BE
:100CD10002FAAD079000ABE075F003A4FF9000A409
:100CE100E0FBA3E0FAA3E02FF9EA35F0FA9000481F
:100CF100ED12040F9000ABE075F00CA4FF9000A77B
:100D0100E0FBA3E0FAA3E02FF9EA35F0FA90000442
:100D1100120618C000C001C002C0039000A4E0FB8D
:100D2100A3E0FAA3E0F990000412037BFCE41202B1
:100D3100C6D003D002D001D000120116C004C005F4
:100D4100C006C0079000A4E0FBA3E0FAA3E0F9907D
:100D5100000612037BFC1202C6D003D002D001D0E0
:100D6100001200251202FAAD079000ABE075F00306
:100D7100A4FF9000A4E0FBA3E0FAA3E02FF9EA3579
:100D8100F0FA900049ED12040F9000ABE004F0027C
:100D91000C669000AAE0FF9000A4E0FBA3E0FAA398
:100DA100E0F9900001EF12040F120EF59000A4E09B
:100DB100FBA3E0FAA3E0F990000312037BC3941EA6
:100DC100900003500574010203CAE412040F740178
:030DD1001203A862
:010DD40022FC
:0F16EA00E0FBA3E0FAA3E0F9900085EF12040FF4
:1016F90090008412037BF404FF90008712037B2F70
:1017090090000C12040F90008512037BF404FF90E3
:0C171900008812037B2F90000D02040FCB
:101013009000A4EBF0A3EAF0A3E9F09000A4E0FBB6
:10102300A3E0FAA3E0F9900001740112040F900009
:101033008412037B90008712040F90008512037BB8
:1010430090008812040F90000412037BFCE4120248
:10105300C69000A7E0FBA3E0FAA3E0F91205F8129B
:101063000116C004C005C006C0079000A4E0FBA39E
:10107300E0FAA3E0F990000512037BFC1202C6D04C
:1010830003D002D001D0001200251202FA9000A46E
:10109300E0FBA3E0FAA3E0F9900084EF12040F90C1
:1010A300000412037BFCE41202C69000A7E0FBA33A
:1010B300E0FAA3E0F9900004120618120116C00426
:1010C300C005C006C0079000A4E0FBA3E0FAA3E0BC
:1010D300F990000612037BFC1202C6D003D002D0A3
:1010E30001D0001200251202FA9000A41216EA9011
:0F10F30000A4E0FBA3E0FAA3E0F974010203A854
:10150F009000B8EBF0A3EAF0A3E9F09000B8E0FB8D
:10151F00A3E0FAA3E0F9900001740112040F900008
:10152F008412037B90008712040F90008512037BB7
:10153F0090008812040F9000BBE0FBA3E0FAA3E039
:10154F00F9120431FF9000B8E0FBA3E0FAA3E0F931
:10155F00900084EF12040F9000BBE0FBA3E0FAA30E
:10156F00E0F990000212045CFF9000B81216EA90A6
:0F157F0000B8E0FBA3E0FAA3E0F974010203A8AF
:1017990090000412037BC3941490000AE475F009C5
:0417A9001204CC2238
:1017250053B1BF53B2BF53B17F53B27F7598504386
:101735008920438780438E1053C4DFAB07AA06A9CF
:1017450005A8047F407E427D0F7C00120535EF041D
:09175500F404F58DD28ED2992224
:08000300C2998F993099FD228A
:10158E009000BE12064853B1FB53B2FB53B3BF5388
:10159E00B4BF75F85075C40853C4DF9000BEE0F8B0
:1015AE00A3E0F9A3E0FAA3E0FB7F407E427D0F7C2F
:1015BE0000120535C374FF9FFF74FF9EFEE49DFD70
:1015CE00E49CFC78081205D58FC69000BEE0F8A307
:1015DE00E0F9A3E0FAA3E0FB7F407E427D0F7C00A2
:0E15EE00120535C374FF9FFF8FC543C408224A
:0817B900C2F98F9A30F9FD22FC
:030000000212A049
:1012A00075C7AA75C75575FD5A75C7AA75C755750F
:1012B000FDA5787FE4F6D8FD9000007FFF7E03E473
:0C12C000F0A3DFFCDEFA758120021307AA
:10001E00020366E86480F8E933E83360110460F0A7
:10002E00ED33EC337009E8FCE9FDEAFEEBFF220448
:10003E0060DED3EB9FEA9EE99DE8C2E78CF0C2F743
:10004E0095F0400CE8CCF8E9CDF9EACEFAEBCFFB0F
:10005E0012033185D0F05804700320D5B3E8047034
:10006E00075002B2D502037092D5EC0460F7E4CCCF
:10007E00C0E0C398F8603B94186008400DD0E0FBD8
:10008E00020348E4FBFAC9FC8028E830E406E4C920
:10009E00FBE4CAFCE830E305E4C9CACBFCE854072C
:1000AE006010F8C3E913F9EA13FAEB13FBEC13FC37
:1000BE00D8F130F52FC3E49CFCEF9BFFEE9AFEEDDA
:1000CE0099FDD0E0FBEF4E4D4C701222DB03020384
:1000DE006DEC2CFCEF33FFEE33FEED33FDED30E730
:1000EE00EB020348EF2BFFEE3AFEED39FDD0E0FBBD
:1000FE0050130BBB0003020370ED13FDEE13FEEF66
:08010E0013FFEC13FC0203488F
:10011600EC4D6011E8497017ED33EC3304600DE4E3
:10012600FCFFFEFD22E933E8330470F80203661291
:10013600033158046009E4CC248150062850090292
:10014600037028400302036DC0E0EB4A7044B98097
:1001560006D0E0FB02035CEF4E701CBD8008EBFF8F
:10016600EAFEE9FD80EBE98DF0A4FEE5F00201FF71
:10017600E9CDF9EAFEEBFFEF89F0A4FCE5F0CE89C4
:10018600F0A42EFFE435F0CD89F0A42DFEE435F081
:100196008067EF4E7005BD80D780C3EF8BF0A4ACAF
:1001A600F0EE8BF0A42CFCE435F0F8EF8AF0A42CEA
:1001B600E5F038FCE433CB8DF0A42CFCE5F03BF8FD
:1001C600EE8AF0A42CFCE5F038F8E433CF89F0A4ED
:1001D6002CFCE5F038CF3400CE89F0A42FFFE5F0F3
:1001E6003EFEE433C98DF0A42EFEE5F039CD8AF04B
:1001F600A42FFFE5F03EFEE43DFD33D0E0FB5007C3
:100206000BBB000F020370EC2CFCEF33FFEE33FE4A
:06021600ED33FD02034878
:10021C00020370EC5D046005E85904700302036688
:10022C00120331580460F6EC4860F2EC7004FDFEE9
:10023C00FF22C860DB2481C85009C39860025006B5
:10024C0002036D9850CAF582E9294B4A7005AB82BE
:10025C0002035C75F0007C1A7880C3EF9BEE9AED7C
:10026C0099400DC3EF9BFFEE9AFEED99FDE842F02D
:10027C00DC23ACF0D0E0FFD0E0FED0E0FDAB822080
:10028C00E7101BEB60BAEC2CFCEF33FFEE33FEED0A
:10029C0033FD020348E803F830E705C0F075F000C1
:1002AC00EF2FFFEE33FEED33FD40B830E7C280AAEE
:1002BC0075F020800E75F010800575F0087D007EBD
:1002CC00007F003392D530D5031205C7EC334010B4
:1002DC00EF33FFEE33FEED33FDEC33FCD5F0ED22C6
:0E02EC00E5F0247EA2D513CC92E7CDCEFF2202
:1002FA00EDD2E7CD33EC3392D524814006E4FFFEFC
:10030A00FDFC22FCE4CFCECDCC24E0501174FF805A
:10031A00EDC3CC13CCCD13CDCE13CECF13CF0470F7
:07032A00F030D5DE0205C72B
:0D000E00ED33EC3360065004EC6480FC22FE
:10033100E9D2E7C933E833F892D5EDD2E7CD33EC12
:0703410033FC5002B2D5228B
:10034800EC30E7100FBF000C0EBE00080DBD000416
:100358000BEB6014A2D5EB13FCED92E7FD2274FFC2
:10036800FCFDFEFF22E480F8A2D574FF13FC7D801B
:03037800E480EF2F
:1012CC00021653E493A3F8E493A34003F68001F2CF
:1012DC0008DFF48029E493A3F85407240CC8C33323
:1012EC00C4540F4420C8834004F456800146F6DFF2
:1012FC00E4800B010204081020408090175EE47E0D
:10130C00019360BCA3FF543F30E509541FFEE493E6
:10131C00A360010ECF54C025E060A840B8E493A3AD
:10132C00FAE493A3F8E493A3C8C582C8CAC583CAD8
:10133C00F0A3C8C582C8CAC583CADFE9DEE780BE90
:01177F000069
:10037B00BB010CE58229F582E5833AF583E0225037
:10038B0006E92582F8E622BBFE06E92582F8E22281
:0D039B00E58229F582E5833AF583E493229B
:1003A800BB010989828A83F8E028F022500327F7E5
:1003B80022BBFE05F8E328F3228A838982F8E493B6
:0203C8002822E9
:1003CA00BB010FF8E58229F582E5833AF583E02837
:1003DA00F0225009C58229F8E58226F622BBFE09D9
:1003EA00C58229F8E22582F222F8EA2583F583E913
:0303FA0093282223
:1003FD00BB010689828A83F0225002F722BBFE01DF
:02040D00F322D8
:10040F00F8BB010DE58229F582E5833AF583E8F023
:10041F00225006E92582C8F622BBFE05E92582C8CF
:02042F00F222B7
:10043100BB010A89828A83E0F5F0A3E02250068796
:10044100F009E71922BBFE07E3F5F009E319228958
:0B045100828A83E493F5F0740193228B
:10045C00BB0110E58229F582E5833AF583E0F5F0DE
:10046C00A3E0225009E92582F886F008E622BBFEBB
:10047C000AE92582F8E2F5F008E222E5832AF58301
:08048C00E993F5F0A3E99322C6
:10049400BB010789828A83020654500B09C5F027E1
:1004A400F7C5F01937F722BBFE0D09F8E325F0F381
:1004B400C5F019E338F322F889828A8374019325FD
:0804C400F0C5F0F8E4933822C2
:1004CC00F8BB0111E58229F582E5833AF583E8F062
:1004DC00E5F0A3F0225009E92582C8F608A6F0221F
:0D04EC00BBFE09E92582C8F2E5F008F22206
:1004F90075F008758200EF2FFFEE33FECD33CDCCBA
:1005090033CCC58233C5829BED9AEC99E58298403C
:100519000CF582EE9BFEED9AFDEC99FC0FD5F0D619
:10052900E4CEFBE4CDFAE4CCF9A88222B800C1B943
:100539000059BA002DEC8BF084CFCECDFCE5F0CB81
:10054900F97818EF2FFFEE33FEED33FDEC33FCEBBA
:1005590033FB10D703994004EB99FB0FD8E5E4F975
:10056900FA227818EF2FFFEE33FEED33FDEC33FC62
:10057900C933C910D7059BE99A4007EC9BFCE99A56
:10058900F90FD8E0E4C9FAE4CCFB2275F010EF2F9B
:10059900FFEE33FEED33FDCC33CCC833C810D7079B
:1005A9009BEC9AE899400AED9BFDEC9AFCE899F8D6
:0E05B9000FD5F0DAE4CDFBE4CCFAE4C8F92269
:0E05C700C3E49FFFE49EFEE49DFDE49CFC2245
:1005D500E8600FECC313FCED13FDEE13FEEF13FF04
:0305E500D8F12228
:1005E800E493F8740193F9740293FA740393FB2269
:1005F800BB010789828A830206775005E9F802065B
:100608006ABBFE05E9F802068389828A830205E847
:10061800BB010DE58229F582E5833AF58302067769
:100628005007E92582F802066ABBFE07E92582F829
:10063800020683E58229F582E5833AF5830205E817
:0C064800ECF0A3EDF0A3EEF0A3EFF02225
:0C17AD00EE30E707C3E49FFFE49EFE223D
:10065400C5F0F8A3E028F0C5F0F8E5821582700231
:060664001583E038F022CE
:0D066A00E6FB08E6F908E6FA08E6CBF82200
:0C067700E0F8A3E0F9A3E0FAA3E0FB2206
:0D068300E2FB08E2F908E2FA08E2CBF822F7
:00000001FF
